:100000000C9411010C9430010C9430010C943001CB
:100010000C9430010C9430010C9430010C9430019C
:100020000C9430010C9430010C9430010C9430018C
:100030000C9430010C9430010C9430010C9430017C
:100040000C9430010C9430010C9430010C9430016C
:100050000C9430010C9430010C9430010C9430015C
:100060000C9430010C94942E0C9430010C943001BB
:100070000C9430010C9454020C9430010C94300117
:100080000C9430010C9430010C9430010C9430012C
:100090000C94EB2E0C9430010C9430010C945D68A0
:1000A0000C9430010C9430010C9430010C9430010C
:1000B0000C9430010C9430010C9430010C943D41AF
:1000C0000C9430010C9430010C9430010C943001EC
:1000D0000C9430010C9430010C9430010C943001DC
:1000E0000C9430010C9430010C9430010C94683A5B
:1000F0000C94773A0C9430010C9430010C942A3A09
:100100000C9430010C9430010C9430010C943001AB
:100110000C9430010C9430010C9430010C9430019B
:100120006E616E00696E660000407A10F35A00A09E
:10013000724E18090010A5D4E80000E876481700B0
:1001400000E40B54020000CA9A3B000000E1F505F0
:10015000000080969800000040420F000000A0863A
:1001600001000000102700000000E803000000006C
:100170006400000000000A00000000000100000010
:1001800000002C76D888DC674F0823DFC1DFAE592A
:10019000E1B1B796E5E3E453C63AE651997696E8BD
:1001A000E6C28426EB898C9B62ED407C6FFCEFBC41
:1001B0009C9F40F2BAA56FA5F490055A2AF75C936C
:1001C0006B6CF9676DC11BFCE0E40D47FEF520E6A2
:1001D000B500D0ED902E0300943577050080841E85
:1001E000080000204E0A000000C80C333333330FE0
:1001F000986E12831141EF8D2114893BE65516CF7D
:10020000FEE6DB18D1844B381BF77C1D901DA4BB88
:10021000E424203284725E228100C9F124ECA1E53D
:100220003D2711241FBECFEFD1E4DEBFCDBF1DE0BF
:10023000A0E0B2E0E0ECFAE101E00BBF02C0079001
:100240000D92A433B107D9F71BE1A4E3BDE001C0CF
:100250001D92AB31B107E1F70E948A070C945E8DC5
:100260000C94000008950895E82FF0E0E05CFE4F44
:1002700060830895E82FF0E0E05CFE4F80810895F0
:10028000E82FF0E0E05CFE4F80816823862F90E04D
:1002900002C0959587954A95E2F70895E82FF0E01A
:1002A000E05CFE4F862F809590818923042E01C04B
:1002B000220F0A94EAF72623822B8083089587FD74
:1002C0008FE780938001482F50E081E891E00C9403
:1002D0004B8CFF920F931F93CF93DF938A01F09083
:1002E0007B01F61608F46F2DC62FD0E0AE0160E852
:1002F00071E00E944B8CC058DE4F8881F8018083EA
:100300008F2DDF91CF911F910F91FF900895FF9254
:100310000F931F93CF93DF938C01F62EEA01209762
:1003200051F047E060E886E00E94400191E08130B2
:1003300009F090E0988340E050E06F2DC801DF9114
:10034000CF911F910F91FF900C946901DF92EF9272
:10035000FF920F931F93CF93DF938C01D62E7A01D8
:10036000E901209751F047E060E886E00E944001F3
:1003700091E0813009F090E09883A7016D2DC801CC
:10038000DF91CF911F910F91FF90EF90DF900C9430
:10039000690180917B010895FA01282F30E0D9018D
:1003A000A60FB11DA038B10514F06FE7681B462FEA
:1003B00050E0BF01C90180589E4F0C944B8C782FA0
:1003C000CA01272F30E0F901E60FF11DE038F105F1
:1003D00014F06FE7671B462F50E0B90160587E4F5D
:1003E0000C944B8C6830710540F4FB01EE0FFF1F3D
:1003F000E80FF91F80819181089580E090E00895D1
:10040000CF93DF93EC0168307105D0F4FB01EE0F60
:10041000FF1FE80FF91F6081718180E090E00E946A
:100420002288288939894A895B890E94348920E099
:1004300030E040E85AE30E943489DF91CF9108957B
:1004400060E070E0CB01DF91CF9108958091480D7D
:10045000882319F084E39DE008950E94D5310E941D
:100460001C31FC0180818230D1F08DEC9CECACEC35
:10047000BFE320EC20937C0010927B002FEE2093B2
:100480007A008093440D9093450DA093460DB09350
:10049000470D81E08093480D84E39DE0089580E05E
:1004A00090E0A0EABFE3E5CF1F920F920FB60F9244
:1004B00011240BB60F921F932F933F934F935F938B
:1004C0006F937F938F939F93AF93BF93CF93DF935C
:1004D000EF93FF9380910B028F5F80930B02833029
:1004E00000F110920B02D091780010917900C09128
:1004F0000A020E942602C83078F180910A028F5FBA
:10050000883038F580930A0280917C00807E809349
:100510007C0080917C0090910A02892B80937C0062
:1005200002C0882301F3FF91EF91DF91CF91BF913A
:10053000AF919F918F917F916F915F914F913F917B
:100540002F911F910F900BBE0F900FBE0F901F9019
:10055000189510920A02D8CFEC2FF0E0EE0FFF1F93
:10056000E80FF91F13708D2F90E0912B91838083FA
:1005700080910A028F5F883060F7C4CFDA01149649
:10058000ED91FC911597309739F0AB01BC011696AF
:100590008D919C911797099408956115710529F023
:1005A00021E030E0DB012D933C93DA01ED91FC91E9
:1005B0001197309731F0682F12968D919C91139777
:1005C000099580E090E00895DC01ED91FC910480B4
:1005D000F581E02D09940C94794A0C9492490C947D
:1005E000A84DCF93DF9300D0CDB7DEB79E012F5F2C
:1005F0003F4F08960E9488700F900F90DF91CF9127
:1006000008950F931F9300E010E020E030E040E0F9
:1006100050E008960E94DC6C019619F01F910F9132
:1006200008950E94638B2F923F924F925F926F9238
:100630007F928F929F92AF92BF92CF92DF92EF9272
:10064000FF920F931F93CF93DF93CDB7DEB7C657BB
:10065000D6400FB6F894DEBF0FBECDBF6C015A0175
:10066000CE018B5C9C4F0E944B8CCB5CDB4FA882F5
:10067000C553D440D601CD90DC9081E091E0FE01DD
:10068000EB5CFC4FDE01AC5CBD4F01900D9201971D
:10069000E1F70E942D71950133278E010F58194FF4
:1006A000AE014C5C5D4FBC01CE018D519A4F0E9452
:1006B0007D71CF58D94F88819981C157D640892BF8
:1006C00009F10E9489304FEF50E060E00E946C30E9
:1006D000CA58D94F0FB6F894DEBF0FBECDBFDF9119
:1006E000CF911F910F91FF90EF90DF90CF90BF902F
:1006F000AF909F908F907F906F905F904F903F90C2
:100700002F9008958CE8FE01ED51FA4FDE01A95AB1
:10071000BA4F01900D928A95E1F7FE0131964F0193
:1007200082E391E0DF01FC011D923197E9F721E0BE
:10073000C855DF4F2883C85AD040C95ADA4F88813C
:100740009981AA81BB81C755D540C755DF4F8883A2
:100750009983AA83BB83C95AD0402B83C55ADA4FE9
:1007600088819981CB55D5408130910509F480C0AD
:100770008230910509F441C0892B09F487C082E0D9
:1007800090E09D838C832F8F83E090E099A388A3D2
:100790009E012159394F5901CE018D5C9E4F3C017C
:1007A0000E94307175018E010D5C1D4F20E031E01B
:1007B000A301BC01C4010E943371D5018D919C91AC
:1007C000892B09F07ECFCD5CDD4F4881C353D240E9
:1007D00050E0D601ED91FC91309709F479CFB30147
:1007E000D60112968D919C9113970995F501808100
:1007F0009181892B09F46CCF64CFC35ADA4F3881C9
:10080000CD55D540332309F4BCCFC25ADA4F888185
:100810009981AA81BB81CE55D540803CE3E29E07F9
:10082000E3E7AE07E0EDBE0709F44AC08330F4E128
:100830009F07FCEAAF07FDEDBF0709F41AC18D3928
:100840009841A94FBF4B09F462C034E020E0FE019B
:10085000E159F94F5F01CE018D5C9E4F3C0182E072
:1008600090E09D838C8381E08F8F38A329A398CF5C
:1008700082E090E09D838C832F8FDE01A159B94FD8
:100880005D01FE01ED5CFE4F3F018ACF2E8383E0C8
:1008900090E0A0E0B0E08B879C87AD87BE8781E0C9
:1008A00090E0A0E0B0E08F8B988FA98FBA8F82E0A4
:1008B00090E0A0E0B0E08B8F9C8FAD8FBE8F68CFB3
:1008C000CE59DA4F4880C256D540512C0E948386BB
:1008D0005E01B1E9AB1AB9EFBB0A3E01EDEC6E1A4D
:1008E000EEEF7E0A8501920147E555E04C0F5D1F52
:1008F000445F5F4FBC01C3010E947D71D5018D91A2
:100900009C91009709F4F5C0382F292FA8CFCE5914
:10091000DA4F4880C256D540512C0E9480865E0135
:10092000F1E9AF1AF9EFBF0A3E012DEC621A2EEF82
:10093000720A8501920147E555E04C0F5D1F445F47
:100940005F4FBC01C3010E947D71D5018D919C91C7
:100950000097D1F61E01BAEC2B1ABBEF3B0A83E9D4
:10096000F301D10101900D928A95E1F78091160271
:10097000882309F442C0F10185858823F1F1468579
:10098000578560897189F60184819581A681B78137
:10099000481759076A077B0781F1448355836683AB
:1009A0007783CD58D94F4883C357D640CC58D94FB9
:1009B0005883C457D640CB58D94F6883C557D640C3
:1009C000CA58D94F7883C657D6400E941441CD5893
:1009D000D94F4881C357D640CC58D94F5881C457B6
:1009E000D640CB58D94F6881C557D640CA58D94F41
:1009F0007881C657D6400E947740F1018185928563
:100A0000A385B48580389105A105B10508F4E8C037
:100A100083E090E0FE01E753FB4F2F01D2018D935D
:100A20009C930E94898675018E01095D1F4F20E805
:100A300030E0AE01485D5F4FBC01C2010E943371DE
:100A4000F50180819181009709F05ECF83E090E00D
:100A50009D838C8381E08AA3C25ADA4F8881998171
:100A6000AA81BB81CE55D5408BA39CA3ADA3BEA3C9
:100A700097CECE59DA4F4880C256D540512C0E94AD
:100A80007D865E0131E9A31A39EFB30A3E01ADEC70
:100A90006A1AAEEF7A0A8501920147E555E04C0FDC
:100AA0005D1F445F5F4FBC01C3010E947D71F50172
:100AB00080819181009709F027CF8CE0EFEEF3E081
:100AC000DE01AA5CBB4F01900D928A95E1F70E946E
:100AD000868675018E01095D1F4F20E830E0AE016A
:100AE000485D5F4FBC01CE018A5C9B4F0E94337111
:100AF000A7CF2E01B7E34B1ABBEF5B0A8EE8F301D9
:100B0000D20101900D928A95E1F780911602882317
:100B100009F442C0F20180858823F1F141855285B4
:100B200063857485F60184819581A681B781481714
:100B300059076A077B0781F144835583668377836E
:100B4000CD58D94F4883C357D640CC58D94F588336
:100B5000C457D640CB58D94F6883C557D640CA58DA
:100B6000D94F7883C657D6400E941441CD58D94FEB
:100B70004881C357D640CC58D94F5881C457D64026
:100B8000CB58D94F6881C557D640CA58D94F7881BC
:100B9000C657D6400E947740F20184819581A68194
:100BA000B78180389105A105B10508F444C083E000
:100BB00090E0FE01EA5CFB4F1F01D1018D939C93F5
:100BC0000E948C8675018E01095D1F4F20E830E080
:100BD000AE01485D5F4FBC01C1010E94337130CF4F
:100BE0002E01F7E34F1AFBEF5F0AD10115968C91A6
:100BF000F201808783E090E09287818748E050E0AF
:100C0000B101C2010E946B8CD20117961C920E9406
:100C10001441DC01ED91FC919101235F3F4FD10123
:100C200019966C9160580190F081E02DA201099510
:100C300080E090E0F3CE1E01FAEC2F1AFBEF3F0AA2
:100C400088E0EBEFF3E0D10101900D928A95E1F796
:100C500082E090E0D1011A969C938E931997F2014D
:100C6000808118968C930E941441DC01ED91FC91D7
:100C70009201285F3F4FD20114966C916058019009
:100C8000F081E02DA101099580E090E096CF41151B
:100C9000510509F408950C9413038091140280FD0A
:100CA00012C00E94893040E050E060E00E946C3049
:100CB00080911402909115020196909315028093F1
:100CC000140281E008950E9489304FEF50E060E007
:100CD0000E946C30EDCF0C944D06E1E6F0E080E828
:100CE0008083108278940E94893040E050E86FEF52
:100CF0000E946C3008951F93CF93DF9300D000D0F3
:100D000000D0CDB7DEB71E821D820E94D5310E9471
:100D10004831FC014081518162817381413051052C
:100D2000F2E06F07710508F06AC0411551056105D1
:100D3000710509F42CC02D813E8180E090E0DC013A
:100D4000ABBFFC0117913127032E0294E02DEF7009
:100D5000E327132F1025110F107EE127102D1327E5
:100D6000107F1695032E000C111F3695369536957B
:100D70003F71312732272E2F0196A11DB11D8417F7
:100D80009507A607B70709F0DBCF3E832D830E94A6
:100D9000D5310E943D31FC01208131818D819E81C0
:100DA0002817390701F10E9489304FEF50E060E0C9
:100DB0000E946C300E94D53122E030E0AE014B5FE2
:100DC0005F4F66E274E00E947731809116028111D4
:100DD00026C026960FB6F894DEBF0FBECDBFDF91BA
:100DE000CF911F91089580911602882381F00E946F
:100DF00089304FEF5FEF6FEF0E946C30EACF0E94B7
:100E000089304FEF50E060E00E946C30E2CF0E94EA
:100E1000893040E05FEF6FEF0E946C30DACF8BE6F5
:100E200096E09A8389831C821B820E94C7412AEF25
:100E300030E040E050E0BE016F5F7F4F0E946342B0
:100E4000C8CFCF92DF92EF92FF920F931F93CF9371
:100E5000DF93CDB7DEB7C159D1090FB6F894DEBF25
:100E60000FBECDBF8C017A01DC018C918823C1F1CA
:100E7000FE0131966F0186E8DF011D928A95E9F740
:100E800041385105E8F5CE0107960E944B8CEE8261
:100E9000F8018485898345855685678570894A83ED
:100EA0005B836C837D838BE03196DE01A957BF4F56
:100EB00001900D928A95E1F781E8C157DF4F888351
:100EC000CF58D0400E941441DC01ED91FC9101907B
:100ED000F081E02D9601AE0149575F4F60E0099522
:100EE000CF56DF4F0FB6F894DEBF0FBECDBFDF91F8
:100EF000CF911F910F91FF90EF90DF90CF900895C9
:100F00000E9489304FEF50E060E00E946C30E8CFE3
:100F10000C942107CF93DF93CDB7DEB7CF5CD541DB
:100F20000FB6F894DEBF0FBECDBF0E946D060E94C3
:100F300014410E9426020E942D680E94C6640E94ED
:100F40006E690E947B0620E034E843E050E061E0F7
:100F500070E0CE018E5A9C4E0E94422FCE018E5AD6
:100F60009C4E0E94C32F1A8219821C821B821E82F1
:100F70001D8218861F821D861C861F861E86CE0136
:100F800009960E942A6C8E010F5F1F4FA8016EEB1D
:100F900072E0CE0109960E949D6C98014DEC52E0E2
:100FA00060E070E0CE0109960E94A86CC45ADA4E47
:100FB00019830883CC55D54181E093E0C65ADA4EB7
:100FC00099838883CA55D54122E533E12C0F3D1F13
:100FD0003C832B8384EE92E09A83898330935B0E6B
:100FE00020935A0E1093590D0093580DCE018E5335
:100FF0009A4EDC0114961D921D921D921C92179719
:1010000013961C930E93129721EF32E02D933C938D
:10101000FE01E253FA4E91838083F887EF8327E441
:1010200036E03E832D83C759DA4E19821882C9569D
:10103000D541C559DA4E19821882CB56D541C359CC
:10104000DA4E19821882CD56D541C159DA4E19822D
:101050001882CF56D541CF58DA4E19821882C1571F
:10106000D541CD58DA4E19821882C357D541CB5895
:10107000DA4E19821882C557D541C958DA4E1982FD
:101080001882C757D541C758DA4E1882C957D5417B
:10109000C658DA4E1882CA57D541C558DA4E18825A
:1010A000CB57D541C455DA4E1882CC5AD5418E0162
:1010B00003551A4ED8011D9228E0EBEFF3E00190A2
:1010C0000D922A95E1F7F801118622E030E033878E
:1010D0002287148629E635E12C0F3D1F328B218BA8
:1010E000948B838B3093570D2093560D9093550D11
:1010F0008093540D1093530D0093520D0E94144190
:10110000DC01ED91FC910480F581E02D2CE737E2C4
:10111000C653DA4E39832883CA5CD541C453DA4EAC
:1011200019830883CC5CD541BE0166537A4E09957C
:10113000C559DA4E19830883CB56D54188E897E024
:10114000C759DA4E99838883C956D5410E949B4A74
:101150007C010E94764AC159DA4E19830883CF5622
:10116000D5412AEF3DE0C359DA4E39832883CD5665
:10117000D541CD58DA4E99838883C357D5418DEE3A
:1011800092E0CF58DA4E99838883C157D541C95828
:10119000DA4EF982E882C757D5418BEE92E0CB5800
:1011A000DA4E99838883C557D541C653DA4E3983C1
:1011B0002883CA5CD541C453DA4E19830883CC5CBA
:1011C000D5410E948949AE0146535A4E60E070E015
:1011D0000E94F348CF58DA4E88819981C157D54192
:1011E000C653DA4E99838883CA5CD541CD58DA4E0E
:1011F00088819981C357D541C453DA4E9983888336
:10120000CC5CD5410E948949AE0146535A4E61E0FB
:1012100070E00E94F348CB58DA4E88819981C55717
:10122000D541C653DA4E99838883CA5CD541C958E3
:10123000DA4E88819981C757D541C453DA4E9983D4
:101240008883CC5CD5410E948949AE0146535A4EF1
:1012500062E070E00E94F34880911602882309F44E
:101260008CC000E010E060C0CA5ADC4E2881398191
:10127000C655D341C85ADC4E88819981C855D3419F
:101280002817390709F454C04FB7F894CA5ADC4EEE
:1012900028813981C655D341C85ADC4E888199814D
:1012A000C855D3412817390709F463C0CA5ADC4E20
:1012B000E881F981C655D341F17022E533E12C0F65
:1012C0003D1FE20FF31F6085CA5ADC4E2881398129
:1012D000C655D341C85ADC4E88819981C855D3413F
:1012E0002817390709F447C0CA5ADC4E888199810A
:1012F000C655D34101969370CA5ADC4E99838883B0
:10130000C655D3414FBFC65ADA4EE881F981CA5556
:10131000D541309739F0C45ADA4E88819981CC553D
:10132000D54109950F5F1F4F043111050CF49CCF77
:101330000E941441DC01ED91FC910680F781E02DC3
:10134000099580911602882379F00E94C7410E9476
:10135000AD4280911602811184CF0E9489490E947A
:10136000234900E010E0E0CF0E9443480E94194565
:10137000ECCF6FEFC7CF0E94638B0E941F502FEE00
:1013800032E0C653DA4E39832883CA5CD541C45350
:10139000DA4E99838883CC5CD5410E94C7412AE00C
:1013A00030E040E050E0BE0166537A4E0E94634256
:1013B00058CF6F927F928F929F92AF92BF92CF92AF
:1013C000DF92EF92FF920F931F93CF93DF93CDB7EE
:1013D000DEB7C554D2400FB6F894DEBF0FBECDBF06
:1013E0003C01CA5CDD4F8882C653D240C95CDD4FE8
:1013F0009882C753D240C85CDD4FA882C853D24000
:10140000C75CDD4FB882C953D240C65CDD4FC8828D
:10141000CA53D240C55CDD4FD882CB53D240C45CA6
:10142000DD4FE882CC53D240C35CDD4FF882CD5310
:10143000D240C25CDD4F0883CE53D240C15CDD4F49
:101440001883CF53D240C05CDD4F2883C054D240B4
:10145000CF5BDD4F3883C154D240CE5BDD4F488334
:10146000C254D240CD5BDD4F5883C354D240CC5BD5
:10147000DD4F6883C454D240CB5BDD4F7883C554C5
:10148000D2409E012F5F3F4F690182E391E0D90175
:10149000FC011D923197E9F781E090E09A838983FE
:1014A00081E0C355DF4F8883CD5AD040E8E1F4E0B6
:1014B00011E620E030E0A90101C01191A5E6B0E0FD
:1014C0000E9492869B01AC01210F311D411D511DCF
:1014D00084E0E932F80789F7C255DF4F2883398362
:1014E0004A835B83CE5AD040CC5CDD4F1982188290
:1014F000C453D2400E947486DE01AC5CBD4F7D01B6
:101500008E010E541F4F20E830E0AE014D545F4F66
:10151000BC01CE018A5C9D4F0E943371CC5CDD4FD3
:1015200028813981C453D24021153105B9F0C90150
:10153000CB5BDD4F0FB6F894DEBF0FBECDBFDF91A2
:10154000CF911F910F91FF90EF90DF90CF90BF90C0
:10155000AF909F908F907F906F9008950E94307110
:101560008E010D5C1D4F20E031E0AE014D5C5E4F01
:10157000BC01C6010E943371CC5CDD4F28813981EA
:10158000C453D2402115310591F6CD5CDD4F488121
:10159000C353D24050E0D301ED91FC913097A1F0BC
:1015A000BE016D5C7E4FD30112968D919C91139775
:1015B0000995CC5CDD4F8881C453D240CB5CDD4FB4
:1015C0009881C553D240B4CF80E090E0B1CF2F9244
:1015D0003F924F925F926F927F928F929F92AF92C3
:1015E000BF92CF92DF92EF92FF920F931F93CF9310
:1015F000DF93CDB7DEB7A8970FB6F894DEBF0FBE66
:10160000CDBF98A38F8F0E946E690E94C66869A3A0
:101610007AA38BA39CA3CB01ABA1BCA1898B9A8B92
:10162000AB8BBC8B0E946E690E94FE682B013C0153
:101630006D8B7E8B8F8B988F0E946E690E943669AE
:101640006DA37EA38FA398A7698F7A8F8B8F9C8FB2
:10165000EF8DF8A1FD96C080D180E280F3800F8DE0
:1016600018A11E0185E1280E311CDE015D96BE8F9A
:10167000AD8F89A19AA1ABA1BCA1BC01CD01F8019C
:1016800021A932A943A954A90E9420874B015C01DA
:1016900020E030E0A9010E94858787FD85C0C50153
:1016A000B401A70196010E94308918167CF00C5FE6
:1016B0001F4F8D8D9E8D2816390609F457C0D10114
:1016C0006D917D918D919D911D01D9CF0E94C74152
:1016D0008091250290912602A0912702B0912802C4
:1016E00089839A83AB83BC8389A19AA1ABA1BCA156
:1016F0008D839E83AF83B88749865A866B867C86A6
:101700008DA19EA1AFA1B8A58D879E87AF87B88B0D
:101710001F921F9289809A80AB80BC80CD80DE8032
:10172000EF80F88409851A852B853C854D855E857B
:101730006F8578898F8D98A10E94D90989A19AA176
:10174000ABA1BCA1EF8DF8A181AB92ABA3ABB4ABC5
:1017500045AA56AA67AA70AE8DA19EA1AFA1B8A551
:1017600081AF92AFA3AFB4AF0F900F90EF8DF8A100
:10177000ED5BFF4F8081A8960FB6F894DEBF0FBED9
:10178000CDBFDF91CF911F910F91FF90EF90DF9030
:10179000CF90BF90AF909F908F907F906F905F9011
:1017A0004F903F902F900895C501B401905879CF84
:1017B000AF92BF92CF92DF92EF92FF920F931F935F
:1017C000CF93DF93CDB7DEB7CD53D2400FB6F894A9
:1017D000DEBF0FBECDBF5C01CA5CDD4F0883C653C0
:1017E000D240C95CDD4F1883C753D240C85CDD4F7F
:1017F0002883C853D240C75CDD4F3883C953D240D9
:10180000C65CDD4F4883CA53D240C55CDD4F588368
:10181000CB53D240C45CDD4F6883CC53D240C35C11
:10182000DD4F7883CD53D2409E012F5F3F4F69013A
:1018300082E391E0D901FC011D923197E9F781E043
:1018400090E09A83898381E0C355DF4F8883CD5A26
:10185000D040EBE2F4E012E620E030E0A90101C064
:101860001191A5E6B0E00E9492869B01AC01210F88
:10187000311D411D511D84E0E533F80789F7C2553C
:10188000DF4F288339834A835B83CE5AD040CC5CB8
:10189000DD4F19821882C453D2400E946E86DE0149
:1018A000AC5CBD4F7D018E010E541F4F20E830E02F
:1018B000AE014D545F4FBC01CE018A5C9D4F0E942A
:1018C0003371CC5CDD4F28813981C453D24021155E
:1018D000310599F0C901C35CDD4F0FB6F894DEBF46
:1018E0000FBECDBFDF91CF911F910F91FF90EF9071
:1018F000DF90CF90BF90AF9008950E9430718E011D
:101900000D5C1D4F20E031E0AE014D5C5E4FBC012F
:10191000C6010E943371CC5CDD4F28813981C453EC
:10192000D24021153105B1F6CD5CDD4F4881C3535E
:10193000D24050E0D501ED91FC913097A1F0BE016D
:101940006D5C7E4FD50112968D919C9113970995F0
:10195000CC5CDD4F8881C453D240CB5CDD4F988195
:10196000C553D240B8CF80E090E0B5CFCF92DF92A0
:10197000EF92FF920F931F93CF93DF93CDB7DEB714
:1019800028970FB6F894DEBF0FBECDBF6C01162F9F
:101990000E94C74140912502509126026091270282
:1019A00070912802042F49835A836B837C8392E0D1
:1019B000492F9D831E82812F90E0612F98878F830E
:1019C000E12CF12C1A812B813C8150E07885C601F5
:1019D0000E94D80B28960FB6F894DEBF0FBECDBF7D
:1019E000DF91CF911F910F91FF90EF90DF90CF90FB
:1019F0000895CF92DF92EF92FF920F931F93CF93B0
:101A0000DF93CDB7DEB728970FB6F894DEBF0FBED1
:101A1000CDBF6C01162F0E94C74140912502509105
:101A200026026091270270912802042F49835A836D
:101A30006B837C8391E0492F9D831E82812F90E0F0
:101A4000612F98878F83E12CF12C1A812B813C81A7
:101A500050E07885C6010E94D80B28960FB6F894FE
:101A6000DEBF0FBECDBFDF91CF911F910F91FF90D1
:101A7000EF90DF90CF900895AF92BF92CF92DF9218
:101A8000EF92FF920F931F93CF93DF93CDB7DEB703
:101A9000C953D2400FB6F894DEBF0FBECDBF5C0174
:101AA000CA5CDD4F488359836A837B83C653D24027
:101AB0009E012F5F3F4F690182E391E0D901FC0154
:101AC0001D923197E9F781E090E09A83898381E064
:101AD000C355DF4F8883CD5AD040E7E3F4E013E6E7
:101AE00020E030E0A90101C01191A5E6B0E00E941C
:101AF00092869B01AC01210F311D411D511D84E0D7
:101B0000EA34F80789F7C255DF4F288339834A83BF
:101B10005B83CE5AD040CC5CDD4F19821882C4530F
:101B2000D2400E947A86DE01AC5CBD4F7D018E0101
:101B30000E541F4F20E830E0AE014D545F4FBC0102
:101B4000CE018A5C9D4F0E943371CC5CDD4F2881B1
:101B50003981C453D2402115310599F0C901C75CC0
:101B6000DD4F0FB6F894DEBF0FBECDBFDF91CF9132
:101B70001F910F91FF90EF90DF90CF90BF90AF90AB
:101B800008950E9430718E010D5C1D4F20E031E000
:101B9000AE014D5C5E4FBC01C6010E943371CC5C4E
:101BA000DD4F28813981C453D24021153105B1F66A
:101BB000CD5CDD4F4881C353D24050E0D501ED915B
:101BC000FC913097A1F0BE016D5C7E4FD50112965D
:101BD0008D919C9113970995CC5CDD4F8881C453FE
:101BE000D240CB5CDD4F9881C553D240B8CF80E066
:101BF00090E0B5CF0F931F93CF93DF9300D000D029
:101C0000CDB7DEB78C01662309F44FC00E94C741EF
:101C1000409125025091260260912702709128027E
:101C20008091100290911102A0911202B0911302C2
:101C3000481B590B6A0B7B0B443F514061057105F2
:101C400020F4F8018081811144C00E94C741809135
:101C5000250290912602A0912702B091280280933C
:101C6000100290931102A0931202B093130288E81D
:101C70009EE09A8389831C830B830E94C74120E4E2
:101C800036E040E050E0BE016F5F7F4F0E9463424C
:101C90009093510D8093500D0F900F900F900F90D7
:101CA000DF91CF911F910F9108950091500D1091E8
:101CB000510D0E94C741B8010E9462410E94C66452
:101CC00024E630E040E050E06CE573E40E947D647F
:101CD000E3CF0E94C74140912502509126026091B6
:101CE00027027091280220E030E0F8018189928972
:101CF0000E943C0DF8011082809116028111A5CF3F
:101D00000E94893040E05FEF6FEF0E946C309DCF02
:101D1000CF93DF93EC018881811104C080E0DF91D3
:101D2000CF9108950E94C74140912502509126020B
:101D3000609127027091280220E030E089899A8919
:101D40000E943C0D1882809116028111E7CF0E94FB
:101D5000893040E05FEF6FEF0E946C3080E0DF91F0
:101D6000CF910895CF92DF92EF92FF920F931F933E
:101D7000CF93DF93CDB7DEB728970FB6F894DEBFC9
:101D80000FBECDBF6C016623E1F10E94C7414091B7
:101D900025025091260260912702709128028091BD
:101DA0000C0290910D02A0910E02B0910F02481BFF
:101DB000590B6A0B7B0B443F51406105710508F0DC
:101DC00050C00E94C7414091250250912602609167
:101DD00027027091280220E030E0C6010E943C0DED
:101DE000E091520DF091530D1082809116028111F5
:101DF00029C00E94893040E05FEF6FEF0E946C3095
:101E000021C00E94C7418091250290912602A09195
:101E10002702B091280289839A83AB83BC831E82F8
:101E20001D8280E090E0682F8F839887E12CF12C51
:101E300009811A812B813C814D815E81792FC601F8
:101E40000E94D80B28960FB6F894DEBF0FBECDBF08
:101E5000DF91CF911F910F91FF90EF90DF90CF9086
:101E600008950E94C7418091250290912602A09179
:101E70002702B091280280930C0290930D02A09348
:101E80000E02B0930F020E94C741809125029091EB
:101E90002602A0912702B091280289839A83AB83FE
:101EA000BC831E821D8281E090E0BDCFAF92BF92C5
:101EB000CF92DF92EF92FF920F931F93CF93DF9316
:101EC000CDB7DEB7C154D2400FB6F894DEBF0FBE17
:101ED000CDBF5C01CA5CDD4FC882C653D240C95C2D
:101EE000DD4FD882C753D240C85CDD4FE882C8536B
:101EF000D240C75CDD4FF882C953D240C65CDD4F8B
:101F00000883CA53D240C55CDD4F1883CB53D240FF
:101F1000C45CDD4F2883CC53D240C35CDD4F388393
:101F2000CD53D240C25CDD4F4883CE53D240C15C1A
:101F3000DD4F5883CF53D240C05CDD4F6883C0541F
:101F4000D240CF5BDD4F7883C154D2409E012F5FDA
:101F50003F4F690182E391E0D901FC011D92319765
:101F6000E9F781E090E09A83898381E0C355DF4FF0
:101F70008883CD5AD040ECE4F4E015E620E030E070
:101F8000A90101C01191A5E6B0E00E9492869B01D3
:101F9000AC01210F311D411D511D84E0E735F807CB
:101FA00089F7C255DF4F288339834A835B83CE5A32
:101FB000D040CC5CDD4F19821882C453D2400E94BD
:101FC0007186DE01AC5CBD4F7D018E010E541F4F4A
:101FD00020E830E0AE014D545F4FBC01CE018A5C79
:101FE0009D4F0E943371CC5CDD4F28813981C453F1
:101FF000D2402115310599F0C901CF5BDD4F0FB6F5
:10200000F894DEBF0FBECDBFDF91CF911F910F912E
:10201000FF90EF90DF90CF90BF90AF9008950E9417
:1020200030718E010D5C1D4F20E031E0AE014D5C42
:102030005E4FBC01C6010E943371CC5CDD4F28812C
:102040003981C453D24021153105B1F6CD5CDD4F45
:102050004881C353D24050E0D501ED91FC913097B7
:10206000A1F0BE016D5C7E4FD50112968D919C91C1
:1020700013970995CC5CDD4F8881C453D240CB5C6B
:10208000DD4F9881C553D240B8CF80E090E0B5CF06
:102090004F925F926F927F928F929F92AF92BF9278
:1020A000CF92DF92EF92FF920F931F93CF93DF9324
:1020B000CDB7DEB72C970FB6F894DEBF0FBECDBFFD
:1020C0004C010E94434862E070E00E941D43762E5E
:1020D000472E582E692EF40125A536A547A550A9EF
:1020E0000E9420876B017C0120E030E0A9010E9462
:1020F0008587A701960187FD57C0F40161A172A1F0
:1021000083A194A10E94858787FF35C00E94C741A3
:102110008091250290912602A0912702B091280279
:10212000C82E89839A83AB83BC8382E0082F8D837A
:102130001E821F821886472D872D942DA52DB62D22
:1021400089879A87AB87BC87A12CB12CDA80EB807A
:10215000FC8010E020E030E05A856B857C85C4016E
:102160000E94560F872D942DA52DB62DF40185A71D
:1021700096A7A7A7B0ABF40182892C960FB6F89466
:10218000DEBF0FBECDBFDF91CF911F910F91FF90AA
:10219000EF90DF90CF90BF90AF909F908F907F9007
:1021A0006F905F904F9008955058A7CF4F925F92D5
:1021B0006F927F928F929F92AF92BF92CF92DF9257
:1021C000EF92FF920F931F93CF93DF93CDB7DEB7BC
:1021D0002C970FB6F894DEBF0FBECDBF4C010E9406
:1021E000434861E070E00E941D43762E472E582E32
:1021F000692EF40121A532A543A554A50E9420878C
:102200006B017C0120E030E0A9010E948587A701D5
:10221000960187FD57C0F401658D768D878D90A15D
:102220000E94858787FF35C00E94C74180912502A3
:1022300090912602A0912702B0912802C82E89838E
:102240009A83AB83BC8381E0082F8D831E821F821B
:102250001886472D872D942DA52DB62D89879A8711
:10226000AB87BC87A12CB12CDA80EB80FC8010E01E
:1022700020E030E05A856B857C85C4010E94560FB2
:10228000872D942DA52DB62DF40181A792A7A3A784
:10229000B4A7F40181892C960FB6F894DEBF0FBE67
:1022A000CDBFDF91CF911F910F91FF90EF90DF9005
:1022B000CF90BF90AF909F908F907F906F905F90E6
:1022C0004F9008955058A7CF4F925F926F927F9290
:1022D0008F929F92AF92BF92CF92DF92EF92FF9236
:1022E0000F931F93CF93DF93CDB7DEB72C970FB625
:1022F000F894DEBF0FBECDBF4C010E94434860E0A2
:1023000070E00E941D43762E472E582E692EF40150
:1023100025A136A147A150A50E9420876B017C0111
:1023200020E030E0A9010E948587A701960187FD82
:1023300056C0F401618D728D838D948D0E948587C6
:1023400087FF34C00E94C7418091250290912602E8
:10235000A0912702B0912802C82E89839A83AB836B
:10236000BC831D821E821F821886472D872D942DC7
:10237000A52DB62D89879A87AB87BC87A12CB12C58
:10238000DA80EB80FC8000E01E812F8138855A8541
:102390006B857C85C4010E94560F872D942DA52D39
:1023A000B62DF40185A396A3A7A3B0A7F401808955
:1023B0002C960FB6F894DEBF0FBECDBFDF91CF9144
:1023C0001F910F91FF90EF90DF90CF90BF90AF9053
:1023D0009F908F907F906F905F904F90089550588E
:1023E000A8CFAF92BF92CF92DF92EF92FF920F935E
:1023F0001F93CF93DF93CDB7DEB7CF53D2400FB645
:10240000F894DEBF0FBECDBF5C01CA5CDD4FE88231
:10241000C653D240C95CDD4FF882C753D240C85C76
:10242000DD4F0883C853D240C75CDD4F1883C953C2
:10243000D240C65CDD4F2883CA53D240C55CDD4F15
:102440003883CB53D240C45CDD4F4883CC53D24059
:10245000C35CDD4F5883CD53D240C25CDD4F6883EF
:10246000CE53D240C15CDD4F7883CF53D2409E0122
:102470002F5F3F4F690182E391E0D901FC011D927A
:102480003197E9F781E090E09A83898381E0C35531
:10249000DF4F8883CD5AD040E9E5F4E01AE620E02A
:1024A00030E0A90101C01191A5E6B0E00E9492863A
:1024B0009B01AC01210F311D411D511D84E0E2360D
:1024C000F80789F7C255DF4F288339834A835B8336
:1024D000CE5AD040CC5CDD4F19821882C453D24012
:1024E0000E947786DE01AC5CBD4F7D018E010E54EB
:1024F0001F4F20E830E0AE014D545F4FBC01CE01CC
:102500008A5C9D4F0E943371CC5CDD4F28813981FC
:10251000C453D2402115310599F0C901C15CDD4F8A
:102520000FB6F894DEBF0FBECDBFDF91CF911F91E4
:102530000F91FF90EF90DF90CF90BF90AF900895F4
:102540000E9430718E010D5C1D4F20E031E0AE0124
:102550004D5C5E4FBC01C6010E943371CC5CDD4F07
:1025600028813981C453D24021153105B1F6CD5CA3
:10257000DD4F4881C353D24050E0D501ED91FC912D
:102580003097A1F0BE016D5C7E4FD50112968D9102
:102590009C9113970995CC5CDD4F8881C453D24040
:1025A000CB5CDD4F9881C553D240B8CF80E090E03E
:1025B000B5CFAF92BF92CF92DF92EF92FF920F937F
:1025C0001F93CF93DF93CDB7DEB72C970FB6F89458
:1025D000DEBF0FBECDBF5C018B014B875C870E94C5
:1025E000C7418091250290912602A0912702B091C7
:1025F0002802E82E89839A83AB83BC83222717FDA8
:102600002095322F802F0D831E832F8338874B8593
:10261000642F49875C855A87C12CD12CFA800B81A5
:102620001C81282F3E814F8158857A85C5010E94E3
:10263000F1112C960FB6F894DEBF0FBECDBFDF911F
:10264000CF911F910F91FF90EF90DF90CF90BF90AF
:10265000AF9008952F923F924F925F926F927F9228
:102660008F929F92AF92BF92CF92DF92EF92FF92A2
:102670000F931F93CF93DF93CDB7DEB7C15FD540E4
:102680000FB6F894DEBF0FBECDBF5C014B01270132
:102690001601223060E1360767ED460764E656070B
:1026A00011F40C947B1F08F46AC0283EA5EA3A078F
:1026B000A9EE4A07ABEB5A0711F40C94552008F029
:1026C00057C12B3BECE63E07EEEB4E07EBE85E070F
:1026D00011F40C948D2008F4BCC12133B9E73B07F9
:1026E000B8E44B07B8EA5B0711F40C94C71D08F473
:1026F00079C62F3665EB360768E9460760EB560763
:1027000009F4DFC4253E354A494E5B4B11F00C9469
:102710001D1FD801CD907D01D12C0E94A88581017B
:102720009601A701BC01C5010E947D71F101808164
:102730009181892B09F06CC00E94F16260E070E029
:102740000E9430626A837B838C839D830E94F16246
:1027500061E070E00E9430626E837F838887998792
:102760000E94F16262E070E00E9430626A877B87BB
:102770008C879D8783E089830E941D860FC2223348
:1027800089EB380780E1480781E4580711F40C947D
:10279000E61F08F057C02938AAE03A07A1E44A0723
:1027A000ABE15A0711F40C94092108F4A6C1213BAE
:1027B0009CE3390791EF490791E3590711F40C9411
:1027C000F71D10F40C94921D253DEBE13E07E7E464
:1027D0004E07E2E35E0709F4CAC2243D3D4648487D
:1027E0005A4311F00C941D1FD801CD907D01D12CBE
:1027F0000E94908581019601A701BC01C5010E943C
:102800007D71F10180819181892B11F40C94EA2171
:10281000CF50DA4F0FB6F894DEBF0FBECDBFDF91B9
:10282000CF911F910F91FF90EF90DF90CF90BF90CD
:10283000AF909F908F907F906F905F904F903F9060
:102840002F9008952F3764ED360766E2460763E55B
:10285000560711F40C948D2108F42BC22831F0E9AD
:102860003F07F9E94F07F3E65F0711F40C94FA1EEE
:1028700008F45BC5213880EA380782EC480783E614
:10288000580709F41AC32438304A424C534611F011
:102890000C941D1FF801C1907F01D12C0E94BD85B1
:1028A00081019601A701BC01C5010E947D71D10182
:1028B0008D919C91892B09F0ABCF3201BFEF6B1A40
:1028C0007B0AFE01E855FC4FC054DA4FF983E883D8
:1028D000C05CD54085E8F501C054DA4FA881B981C4
:1028E000C05CD54001900D928A95E1F7D501CD905D
:1028F000DD90ED90FC90A12CB12C00E010E088243C
:102900008394912CC454DA4F79826882CC5BD54091
:10291000CC53DA4F59824882C45CD540C401002EA2
:1029200002C0880F991F0A94E2F7AA2797FDA09585
:10293000BA2F8C219D21AE21BF21892B8A2B8B2B75
:1029400011F00C94A6220F5F1F4F0330110531F7D1
:10295000C454DA4F68807980CC5BD540CC53DA4FD1
:1029600048805980C45CD54019820E94328674C365
:10297000243985EC38078DEF48078FED580711F49F
:102980000C94C52008F417C1243B71E2370777EE99
:102990004707570711F40C94921E08F423C4283FEC
:1029A000AFE23A07AAEE4A07A8EE5A0709F45FC356
:1029B000283A3747464B5D4F11F00C941D1FF80124
:1029C000C1907F01D12C0E94D28581019601A7017F
:1029D000BC01C5010E947D71D1018D919C91892B13
:1029E00009F016CF6201BFEFCB1ADB0A0E94C74184
:1029F0008091250290912602A0912702B091280291
:102A000089839A83AB83BC837E01E6E0EE0EF11CE2
:102A100000E010E00E944348B8010E941D43D70126
:102A20006D937D938D939D937D010F5F1F4F0330B9
:102A3000110581F783E08D830E9447867101820131
:102A400020E830E0A601BC01CE0101960E9433715E
:102A5000DFCE243A6AE1360761EB46076CE656079B
:102A600011F40C94241F08F4F5C7263F95E83907A4
:102A700093EE49079CE6590709F4DDC12B3F334427
:102A80004948554811F00C941D1FD801CD907D0187
:102A9000D12C0E94EA8581019601A701BC01C501E4
:102AA0000E947D71F10180819181892B09F0B0CE66
:102AB00085E8F501DE01A95CBA4F01900D928A9577
:102AC000E1F7C55CDA4FE880CB53D540F12CC95C07
:102AD000DA4F08811981C753D5400E94D53147E3A9
:102AE00055E04C0F5D1F4B5F5F4F9701B8010E948F
:102AF000773119820E945F8651C02631E9E23E0794
:102B0000E2E24E07E7E05E0711F40C94241E08F49D
:102B10009DC425317DED370776ED47077BE05707EC
:102B200009F40BC1293D3C40424B5F4011F00C942D
:102B30001D1FD801CD907D01D12C0E94AE85810151
:102B40009601A701BC01C5010E947D71F101808140
:102B50009181892B09F05CCE0E94F16260E070E007
:102B60000E9454626A837B838C839D830E94F162FE
:102B700061E070E00E9454626E837F83888799874A
:102B80000E94F16262E070E00E9454626A877B8773
:102B90008C879D8783E089830E942386A2014F5FF3
:102BA0005F4F7101820120E830E0BC01CE01019647
:102BB0000E9433712DCE2135A4E03A07ABE84A07D5
:102BC000A6EC5A0711F40C94CA1E08F473C3233000
:102BD000F4E13F07FCEA4F07FDED5F0709F4A7C2E8
:102BE0002038304147495E4D11F00C941D1FF8010B
:102BF000C1907F01D12C0E94BA8581019601A70165
:102C0000BC01C5010E947D71D1018D919C91892BE0
:102C100009F0FECD3201BFEF6B1A7B0A85E8F501A2
:102C2000DE01A35DBB4F01900D928A95E1F7F5019E
:102C3000C080D180E280F380A12CB12C00E010E0B4
:102C400088248394912CC454DA4F79826882CC5BB7
:102C5000D540C054DA4F59824882C05CD540C40187
:102C6000002E02C0880F991F0A94E2F7AA2797FD49
:102C7000A095BA2F8C219D21AE21BF21892B8A2BB3
:102C80008B2B11F00C9459220F5F1F4F033011054D
:102C900031F7C454DA4F68807980CC5BD540C0549A
:102CA000DA4F48805980C05CD54019820E942F8637
:102CB000D3C12F3483EE380781EE480782E45807EA
:102CC00009F4F6C708F452C2273DBFE73B07BAE351
:102CD0004B07B7E45B0709F45EC1283E304F484C10
:102CE000514511F00C941D1FF801C1907F01D12CAA
:102CF0000E94878581019601A701BC01C5010E9440
:102D00007D71D1018D919C91892B09F081CD0E941B
:102D10008930FC0130818181228190E0A0E0B0E027
:102D2000BA2FA92F982F8827A32B822B89839A83C8
:102D3000AB83BC830E94FC8531CFD801CD907D014F
:102D4000D12C0E94DB8581019601A701BC01C50140
:102D50000E947D71F10180819181892B09F058CD0C
:102D600019821A821B821C820E94508617CFD801BA
:102D7000CD907D01D12C0E94968581019601A701FD
:102D8000BC01C5010E947D71F10180819181892B77
:102D900009F03ECD6201FFEFCF1ADF0AD5018C9119
:102DA00081110C946225D40114968D919C911597F4
:102DB0009A83898316968D919C9117979C838B8318
:102DC0000E948949FE0131965F01AF0160E070E029
:102DD0000E94F348D40118968D919C9119979A837B
:102DE00089831A968D919C911B979C838B830E945B
:102DF0008949A50161E070E00E94F348F4018485EF
:102E000095859A838983868597859C838B830E9489
:102E10008949A50162E070E00E94F34819820E948E
:102E20000B867101820120E830E0A601BC01C501DA
:102E30000E943371EDCCD801CD907D01D12C0E9440
:102E40009F8581019601A701BC01C5010E947D718A
:102E5000F10180819181892B09F0DACC0E94F16225
:102E600060E070E00E94BC62AA2797FDA095BA2F8F
:102E70008A839B83AC83BD830E94F16261E070E032
:102E80000E94BC62AA2797FDA095BA2F8E839F83CC
:102E9000A887B9870E94F16262E070E00E94BC627C
:102EA000AA2797FDA095BA2F8A879B87AC87BD87F5
:102EB00083E089830E94148671CEF801C1907F015E
:102EC000D12C0E94C08581019601A701BC01C501DA
:102ED0000E947D71D1018D919C91892B09F098CC34
:102EE0003201BFEF6B1A7B0AFE01ED5DFC4FC4544B
:102EF000DA4FF983E883CC5BD54085E8F501C4540B
:102F0000DA4FA881B981CC5BD54001900D928A95AA
:102F1000E1F7D501CD90DD90ED90FC90A12CB12C86
:102F200000E010E088248394912CC054DA4F798219
:102F30006882C05CD540CC53DA4F59824882C45C69
:102F4000D540C401002E02C0880F991F0A94E2F7F1
:102F5000AA2797FDA095BA2F8C219D21AE21BF21D4
:102F6000892B8A2B8B2B11F00C9459240F5F1F4F48
:102F70000330110531F7C054DA4F68807980C05CA6
:102F8000D540CC53DA4F48805980C45CD540198273
:102F90000E94358661C0F801C1907F01D12C0E944A
:102FA000CC8581019601A701BC01C5010E947D71FC
:102FB000D1018D919C91892B09F02ACC3201BFEF70
:102FC0006B1A7B0A85E8F501DE01A15FBE4F019017
:102FD0000D928A95E1F7F501C080D180E280F380FF
:102FE000A12CB12C00E010E088248394912CC454CF
:102FF000DA4F79826882CC5BD540C054DA4F59826F
:103000004882C05CD540C401002E02C0880F991FC1
:103010000A94E2F7AA2797FDA095BA2F8C219D214B
:10302000AE21BF21892B8A2B8B2B11F00C940C2401
:103030000F5F1F4F0330110531F7C454DA4F68801A
:103040007980CC5BD540C054DA4F48805980C05C51
:10305000D54019820E9441867101820120E830E04A
:10306000A301BC01CE0101960E943371D1CBD801DE
:10307000CD907D01D12C0E94ED8581019601A701A3
:10308000BC01C5010E947D71F10180819181892B74
:1030900009F0BECBD5011496FC9014971596EC90D0
:1030A00015970D911C910E94D5312F2D3E2DAE010B
:1030B0004E5F5F4FB8010E94A130F9820E94628684
:1030C0006DCDD801CD907D01D12C0E94B1858101BB
:1030D0009601A701BC01C5010E947D71F1018081AB
:1030E0009181892B09F094CB0E94F16260E070E03D
:1030F0000E9478626A837B838C839D830E94F16245
:1031000061E070E00E9478626E837F838887998790
:103110000E94F16262E070E00E9478626A877B87B9
:103120008C879D8783E089830E94268637CDD801CE
:10313000CD907D01D12C0E94DE8581019601A701F1
:10314000BC01C5010E947D71F10180819181892BB3
:1031500009F05ECB8CE0E3E0F4E0DE011196019033
:103160000D928A95E1F70E94538618CD263C38428D
:10317000404F514409F061C6D801CD907D01D12C5A
:103180000E94AB8581019601A701BC01C5010E9487
:103190007D71F10180819181892B09F039CB0E94E9
:1031A000F16260E070E00E94E9616A837B838C8356
:1031B0009D830E94F16261E070E00E94E9616E838C
:1031C0007F83888799870E94F16262E070E00E94A5
:1031D000E9616A877B878C879D8783E089830E946A
:1031E0002086DCCC25393348474C524E09F025C6A1
:1031F000F801C1907F01D12C0E94C6858101960102
:10320000A701BC01C5010E947D71D1018D919C91E6
:10321000892B09F0FDCA3201BFEF6B1A7B0A85E8E2
:10322000F501DE01A75EBD4F01900D928A95E1F791
:10323000F501C080D180E280F380A12CB12C00E0A8
:1032400010E088248394912CC454DA4F79826882E8
:10325000CC5BD540C054DA4F59824882C05CD5401F
:10326000C401002E02C0880F991F0A94E2F7AA2712
:1032700097FDA095BA2F8C219D21AE21BF21892BCE
:103280008A2B8B2B11F00C94BF230F5F1F4F033041
:10329000110531F7C454DA4F68807980CC5BD54092
:1032A000C054DA4F48805980C05CD54019820E94D2
:1032B0003B86D2CE2835354D43485D4B09F0BDC520
:1032C000F801C1907F01D12C0E9493858101960164
:1032D000A701BC01C5010E947D71D1018D919C9116
:1032E000892B09F095CA6201BFEFCB1ADB0AF50101
:1032F00081819281A381B4812081F40121110C94F8
:103300008E25EF5BFF4F008111810E94C741B801FC
:103310000E946241F401ED5BFF4F1082CE010196E5
:103320005C0119820E9408867CCD2F313E484F4BAC
:103330005A4509F082C5F801C1907F01D12C0E9445
:10334000F08581019601A701BC01C5010E947D7134
:10335000D1018D919C91892B09F05ACA4201BFEF8E
:103360008B1A9B0A6E01EAE8CE0ED11C85E8F501A6
:10337000D60101900D928A95E1F786010B5F1F4FF0
:10338000D60114962C9114976C91C351DA4F28836F
:10339000CD5ED540C451DA4F6883CC5ED5400E94E3
:1033A0002D68C351DA4F2881CD5ED540A801C451A4
:1033B000DA4F6881CC5ED5400E949067892B01F777
:1033C0000E942D680E94196819820E946586710109
:1033D000820120E830E0A401BC01CE0101960E94E8
:1033E000337116CA2F3D374A4A40564909F025C560
:1033F000F801C1907F01D12C0E94D58581019601F1
:10340000A701BC01C5010E947D71D1018D919C91E4
:10341000892B09F0FDC96201BFEFCB1ADB0A0E94BC
:10342000294BFC018185928503978330910510F02B
:103430000C94B125FC01EE0FFF1FE958FB4F808172
:1034400091819A8389830E944A86F8CA233E30413B
:10345000434C564009F0F1C4D801CD907D01D12CE8
:103460000E94E18581019601A701BC01C5010E946E
:103470007D71F10180819181892B09F0C9C9920187
:103480002F5F3F4FC952DA4F39832883C75DD5403C
:10349000D50111960D90BC91A02DC051DA4FB98382
:1034A000A883C05FD540D50113966D907D908D9017
:1034B0009C901697C353DA4F688279828A829B82E6
:1034C000CD5CD5401796BC91C553DA4FB883CB5C21
:1034D000D540F5010084F185E02DC951DA4FF9831B
:1034E000E883C75ED540D5011A96BC91CA51DA4F20
:1034F000B883C65ED540F5014385548565857685DC
:10350000F785C653DA4FF883CA5CD540D50150968B
:103510000D90BC91A02DC252DA4FB983A883CE5D25
:10352000D540F501F289C052DA4FF883C05ED5402C
:10353000D50153960D90BC91A02DCA53DA4FB98393
:10354000A883C65CD540F501C588D688E788F08C8D
:10355000F18DC552DA4FF883CB5DD540D5015A962F
:103560000D90BC91A02DC452DA4FB983A883CC5DD5
:10357000D540F501F48DC853DA4FF883C85CD540C7
:10358000F501858D968DA78DB0A1F1A1CD52DA4FB1
:10359000F883C35DD540F50102A0F3A1E02DC75229
:1035A000DA4FF983E883C95DD540F501F4A1C25132
:1035B000DA4FF883CE5ED540F50105A0F6A1E02DE7
:1035C000C054DA4FF983E883C05CD540F50107A108
:1035D00010A521A532A5F3A5CB51DA4FF883C55E1E
:1035E000D540F50104A4F5A5E02DC454DA4FF983C4
:1035F000E883CC5BD540F501F6A5CC53DA4FF883D0
:10360000C45CD540F50167A470A881A892A8CF51E9
:10361000DA4F688279828A829B82C15ED540F3A9A3
:10362000CF52DA4FF883C15DD540F50164A875A883
:10363000F081C151DA4FF883CF5ED540C35DDB4FD7
:10364000F883CD52D440C052DA4F8880C05ED54056
:10365000C25DDB4F8882CE52D440C251DA4F98808F
:10366000CE5ED540C15DDB4F9882CF52D440C05171
:10367000DA4FA880B980C05FD540C75EDD4FB98200
:10368000A882C951D240CA53DA4FE881F981C65C99
:10369000D540C55EDD4FF983E883CB51D240C0549D
:1036A000DA4F88809980C05CD540C35EDD4F998237
:1036B0008882CD51D240C353DA4F88809980AA8046
:1036C000BB80CD5CD540C657DF4F88829982AA82E5
:1036D000BB82CA58D040C257DF4FC882D982EA8223
:1036E000FB82CE58D040CE56DF4F088319832A8301
:1036F0003B83C259D0409E0128553C4FC054DA4FFD
:1037000039832883C05CD540C553DA4F8880CB5CB1
:10371000D540F9018082C552DA4F9880CB5DD54003
:103720009182CB51DA4FA880C55ED540A282C951A3
:10373000DA4F28813981C75ED540CC56DE4F3983B8
:103740002883C459D140C452DA4FE881F981CC5D55
:10375000D540CA56DE4FF983E883C659D140C454D8
:10376000DA4F88809980CC5BD540C856DE4F99826D
:103770008882C859D1409E012D5D3C4FC454DA4F18
:1037800039832883CC5BD540CA51DA4F8880C65E26
:10379000D540F9018082C853DA4F9880C85CD54083
:1037A0009182CC53DA4FA880C45CD540A282498371
:1037B0005A836B837C838D839E83AF83B887CF517D
:1037C000DA4F288139814A815B81C15ED5402987E2
:1037D0003A874B875C87AE0142565D4FCC53DA4F38
:1037E00059834883C45CD540C653DA4FE881CA5C2C
:1037F000D540DA01EC93CD52DA4FF881C35DD54064
:103800001196FC931197CF52DA4F8880C15DD54055
:1038100012968C92C252DA4FA880B980CE5DD54004
:10382000C15FDE4FB982A882CF50D140C752DA4F74
:1038300028813981C95DD540CF5EDE4F3983288329
:10384000C151D140CD5EDE4F79826882C351D140F3
:103850004DE254E04C0F5D1F4F5F5F4FC853DA4F8E
:1038600059834883C85CD540BE01615F7E4FCA530F
:10387000DA4F79836883C65CD540CE0101965C013E
:103880008E01075E1D4FDE01A657BF4F6D01FE0181
:10389000EC56FE4F4F01612C712CC151DA4FE8817B
:1038A000CF5ED540C553DA4F59824882CB5CD540B4
:1038B0002B01C353DA4F39822882CD5CD5401801E1
:1038C000CF52DA4F99838883C15DD540EE2309F446
:1038D0009AC0C054DA4FE881F981C05CD540E60D4A
:1038E000F71D8081882311F40C94A624D4018D91B6
:1038F0009C91C454DA4FE881F981CC5BD540E60D48
:10390000F71D2081CA53DA4F2883C65CD5402111A8
:1039100006C0D5011D921D921D921C921397CC5387
:10392000DA4FE881F981C45CD540E60DF71DB0811E
:10393000C653DA4FB883CA5CD540B11105C021E047
:1039400030E0F201318320838230910511F40C9430
:10395000C42514F40C94DB248330910511F40C94E9
:103960000726049709F047C0D5012D913D914D914F
:103970005C91CD52DA4F288339834A835B83C35DE0
:10398000D540F6012081318142815381C351DA4F04
:103990002883CD5ED540C751DA4F3883C95ED54004
:1039A000C651DA4F4883CA5ED540C551DA4F5883B5
:1039B000CB5ED5400E941F50CD52DA4FE880F9808F
:1039C0000A811B81C35DD540C351DA4F2881CD5E8A
:1039D000D540C751DA4F3881C95ED540C651DA4F5C
:1039E0004881CA5ED540C551DA4F5881CB5ED5407B
:1039F000B3010E94C14FCA53DA4FF881C65CD5406B
:103A0000F1110C942025BFEF6B1A7B0AE2E04E0EF9
:103A1000511CF4E0AF0EB11C22E0220E311C34E048
:103A2000C30ED11C42E0840E911C53E06516710454
:103A300009F406C5C853DA4FA881B981C85CD540DE
:103A4000ED91C853DA4FB983A883C85CD540EE2303
:103A5000D1F23FCF2B38384C44415C4609F0EDC1E0
:103A6000F801C1907F01D12C0E94C9858101960186
:103A7000A701BC01C5010E947D71D1018D919C916E
:103A8000892B11F00C9408143201BFEF6B1A7B0ADA
:103A900085E8F501DE01AC56BE4F01900D928A9586
:103AA000E1F7F501C080D180E280F380A12CB12C38
:103AB00000E010E088248394912CC454DA4F79827A
:103AC0006882CC5BD540C054DA4F59824882C05CD2
:103AD000D540C401002E02C0880F991F0A94E2F756
:103AE000AA2797FDA095BA2F8C219D21AE21BF2139
:103AF000892B8A2B8B2B09F0F6C50F5F1F4F0330E4
:103B0000110539F7C454DA4F68807980CC5BD54011
:103B1000C054DA4F48805980C05CD54019820E9459
:103B20003E869ACA2115314C444F514209F085C155
:103B3000F801C1907F01D12C0E94F385810196018B
:103B4000A701BC01C5010E947D71D1018D919C919D
:103B5000892B11F00C9408146201BFEFCB1ADB0A19
:103B6000F501148100810E942D68212FAE014E5F66
:103B70005F4F602F0E94B367892BA9F70E942D68C1
:103B80000E94196819830E9468860C941E15F8011A
:103B9000C1907F01D12C0E94848581019601A701EB
:103BA000BC01C5010E947D71D1018D919C91892B31
:103BB00011F00C9408140E946E690E94C668698313
:103BC0007A838B839C830E946E690E94FE686D835A
:103BD0007E838F8398870E946E690E943669698709
:103BE0007A878B879C870E94F9850C94CE15D80123
:103BF000CD907D01D12C0E949C8581019601A70169
:103C0000BC01C5010E947D71F10180819181892BE8
:103C100011F00C9408146201FFEFCF1ADF0AD501EE
:103C20008C918111A2C71A8219821C821B820E9468
:103C30001F509E012F5F3F4F5901B9010E94B94C9F
:103C400019820E941186EDC8F801C1907F01D12C24
:103C50000E94E78581019601A701BC01C5010E9470
:103C60007D71D1018D919C91892B11F00C940814D8
:103C70006201BFEFCB1ADB0AF501E1808081882366
:103C800009F473C6F12C00E010E0C701002E02C059
:103C9000959587950A94E2F780FDFEC30F5F1F4F4D
:103CA0000330110591F719820E945C860C941E1551
:103CB000F801C1907F01D12C0E94E4858101960119
:103CC000A701BC01C5010E947D71D1018D919C911C
:103CD000892B11F00C9408146201BFEFCB1ADB0A98
:103CE0000E9443487C0100E010E00E941F50B80190
:103CF0000E94B34C0E941F5040E050E0B8010E9467
:103D0000514C0F5F1F4F0330110579F7F701BD9636
:103D100086E0DF011D928A95E9F719820E94598693
:103D20000C941E15D801CD907D01D12C0E94A28546
:103D300081019601A701BC01C5010E947D71F101BD
:103D400080819181892B11F00C9408140E94F162FA
:103D500060E070E00E94DC626A837B838C839D83D9
:103D60000E94F16261E070E00E94DC626E837F83FA
:103D7000888799870E94F16262E070E00E94DC62AD
:103D80006A877B878C879D8783E089830E9417865B
:103D90000C94CE15F801C1907F01D12C0E94CF85E3
:103DA00081019601A701BC01C5010E947D71D1016D
:103DB0008D919C91892B11F00C9408140E94294B31
:103DC0000E94260260E070E00E94000226E636E6CD
:103DD00046E850E40E94348920E030E040EC5FE3A4
:103DE0000E94898769837A838B839C830E9444869F
:103DF0000C94CE15D801CD907D01D12C0E948D85DB
:103E000081019601A701BC01C5010E947D71F101EC
:103E100080819181892B11F00C9408140E94C66452
:103E2000FC0181819281A381B48189839A83AB83D0
:103E3000BC830E9402860C94CE1584E090E0F101D0
:103E4000918380830C940814D801CD907D01D12CEE
:103E50000E94D88581019601A701BC01C5010E947D
:103E60007D71F10180819181892B11F00C940814EE
:103E70006201FFEFCF1ADF0A0E94C741809125023D
:103E800090912602A0912702B091280289839A83FB
:103E9000AB83BC833E0126E0620E711C00E010E0A3
:103EA00088248394912C44E0A42EB12C52E0E52E7A
:103EB000F12C0E941F50B8010E94FC4C81309105EA
:103EC00009F44FC50CF4E1C28230910509F445C5EF
:103ED000039719F4F301B182A0820F5F1F4FF2E044
:103EE0006F0E711C0330110521F783E08D830E9452
:103EF0004D860C941E15D801CD907D01D12C0E94C9
:103F0000B78581019601A701BC01C5010E947D71A1
:103F1000F10180819181892B11F00C940814920198
:103F20002F5F3F4FC454DA4F39832883CC5BD54091
:103F300085E8F501DE01AE54BB4F01900D928A95E4
:103F4000E1F7D5018D909D90AD90BC90C12CD12C06
:103F500000E010E0EE24E394F12CC054DA4F5982D3
:103F60004882C05CD540C701002E02C0880F991F4F
:103F70000A94E2F7AA2797FDA095BA2F88219921E4
:103F8000AA21BB21892B8A2B8B2B09F078C30F5FC9
:103F90001F4F0330110539F7C054DA4F488059805C
:103FA000C05CD54019820E942C867101820120E8F4
:103FB00030E0C454DA4F48815981CC5BD540BC0114
:103FC000CE0101960E9433710C940814F801C1903F
:103FD0007F01D12C0E94C38581019601A701BC01FC
:103FE000C5010E947D71D1018D919C91892B11F0A9
:103FF0000C9408143201BFEF6B1A7B0AFE01E256E3
:10400000FD4FCC53DA4FF983E883C45CD54085E893
:10401000F501CC53DA4FA881B981C45CD540019039
:104020000D928A95E1F7D501CD90DD90ED90FC9051
:10403000A12CB12C00E010E088248394912CC4546E
:10404000DA4F79826882CC5BD540C054DA4F59820E
:104050004882C05CD540C401002E02C0880F991F61
:104060000A94E2F7AA2797FDA095BA2F8C219D21EB
:10407000AE21BF21892B8A2B8B2B09F0B4C20F5F95
:104080001F4F0330110539F7C454DA4F6880798027
:10409000CC5BD540C054DA4F48805980C05CD540D5
:1040A00019820E9438860C942C18D801CD907D017D
:1040B000D12C0E94A58581019601A701BC01C501F3
:1040C0000E947D71F10180819181892B11F00C9406
:1040D00008140E94F16260E070E00E940C626A8342
:1040E0007B838C839D830E94F16261E070E00E947B
:1040F0000C626E837F83888799870E94F16262E0F9
:1041000070E00E940C626A877B878C879D8783E0C2
:1041100089830E941A860C94CE15D801CD907D011A
:10412000D12C0E94B48581019601A701BC01C50173
:104130000E947D71F10180819181892B11F00C9495
:1041400008140E94F16260E070E00E949C626A8341
:104150007B838C839D830E94F16261E070E00E940A
:104160009C626E837F83888799870E94F16262E0F8
:1041700070E00E949C626A877B878C879D8783E0C2
:1041800089830E9429860C94CE15F801C1907F0185
:10419000D12C0E948A8581019601A701BC01C5012D
:1041A0000E947D71D1018D919C91892B11F00C940D
:1041B0000814F501C080D180E280F380A701662752
:1041C00077278D2C9E2CAF2CBB24C651DA4F488309
:1041D000CA5ED540C551DA4F5883CB5ED540C45135
:1041E000DA4F6883CC5ED540C751DA4F7883C95E19
:1041F000D5400E948930C651DA4F4881CA5ED54009
:10420000582D6C2D0E946C3019820E94FF850C94F1
:10421000CE15D801CD907D01D12C0E9499858101C8
:104220009601A701BC01C5010E947D71F101808149
:104230009181892B11F00C9408146201FFEFCF1AC1
:10424000DF0AD50111963C91119712968D919D919F
:104250000D90BC91A02DF5010681E7804085518528
:1042600062857385C054DA4F488359836A837B83A0
:10427000C05CD5401485F584468557856089718971
:10428000C454DA4F488359836A837B83CC5BD5401F
:10429000208121116EC39E012F5F3F4F59010023E2
:1042A00039F1EE2009F41BC5C054DA4F2881398159
:1042B0004A815B81C05CD540D4015D962D933D93CE
:1042C0004D935C93909781E051968C9386ED90E1AD
:1042D0009A8389839C828B820E94C74124E630E0C6
:1042E00040E050E0B5010E946342F401968B858B5B
:1042F000112371F0F11000C5D40157960D911C9156
:1043000058970E94C741B8010E946241F401128A85
:1043100019820E940E860C941117D801CD907D0150
:10432000D12C0E94F68581019601A701BC01C5012F
:104330000E947D71F10180819181892B11F00C9493
:1043400008144201FFEF8F1A9F0A89E8F501DE0188
:10435000119601900D928A95E1F79E0126573F4FE5
:10436000690159013FEFA31AB30AED8029856981DC
:10437000C351DA4F2883CD5ED540C451DA4F6883EC
:10438000CC5ED5400E942D688501C351DA4F28814B
:10439000CD5ED540AE01465F5F4FC451DA4F6881B4
:1043A000CC5ED5400E94DC67892BF9F60E942D680F
:1043B0000E9419688D81D6018C930E946B867101D1
:1043C000820120E830E0A401BC01C6010E943371E3
:1043D0000C940814D5014D915D916D917C91C6515D
:1043E000DA4F4883CA5ED540C551DA4F5883CB5E59
:1043F000D540C451DA4F6883CC5ED540C751DA4FFF
:104400007883C95ED5400E94C664C651DA4F4881A0
:10441000CA5ED540C551DA4F5881CB5ED540C451F4
:10442000DA4F6881CC5ED540C751DA4F7881C95EDA
:10443000D5400E942B6419820E9405860C94CE15EB
:10444000C553DA4F48805980CB5CD540C353DA4F0F
:1044500028803980CD5CD540CF52DA4FA880B98012
:10446000C15DD54019820E9456867101820120E803
:1044700030E0C952DA4F48815981C75DD540BC014F
:10448000C5010E9433710C940814892B09F025CDC5
:10449000D301ED92FC9221CD0E941F50B8010E94E1
:1044A000B34C0E941F5040E050E0B8010E94514CB4
:1044B000F5CBF501EE0FFF1FEE0FFF1FBDE26B2ED8
:1044C000B4E07B2E6C0E7D1EE60DF71D45805680F8
:1044D000678070840E94F162A3019201B8010E947A
:1044E000CB620E941F509801220F331F820F931F2F
:1044F000DC018D919C91892B21F1C351DA4F2883E6
:10450000CD5ED540C751DA4F3883C95ED5400E9491
:104510001F50C351DA4F2881CD5ED540C751DA4FC5
:104520003881C95ED540820F931FFC018081918143
:10453000DC01ED91FC91028CF38DE02DB301A20121
:104540000995BFEFAB1ABB0A0C944416F501EE0FA8
:10455000FF1FEE0FFF1FC054DA4F68807980C05CE8
:10456000D540E60DF71D45805680678070840E9417
:10457000F162A3019201B8010E94FC610E941F50E8
:104580009801220F331F820F931FDC018D919C91A4
:10459000892B21F1C351DA4F2883CD5ED540C75115
:1045A000DA4F3883C95ED5400E941F50C351DA4F9D
:1045B0002881CD5ED540C751DA4F3881C95ED540DC
:1045C000820F931FFC0180819181DC01ED91FC91B0
:1045D0000684F785E02DB301A2010995BFEFAB1A60
:1045E000BB0A0C94A314F501EE0FFF1FEE0FFF1F83
:1045F000CC53DA4F68807980C45CD540E60DF71D56
:1046000045805680678070840E94F162A301920108
:10461000B8010E94DA610E941F509801220F331FD7
:10462000820F931FDC018D919C91892B21F1C35145
:10463000DA4F2883CD5ED540C751DA4F3883C95E43
:10464000D5400E941F50C351DA4F2881CD5ED5401E
:10465000C751DA4F3881C95ED540820F931FFC01E4
:1046600080819181DC01ED91FC910484F585E02D40
:10467000B301A2010995BFEFAB1ABB0A00CDF60149
:10468000EE0FFF1FEE0FFF1F72EB672E74E0772E09
:104690006C0E7D1EE60DF71D458056800E94F1626E
:1046A000A201B8010E94B0620E941F503801660C3E
:1046B000771C860D971DDC018D919C91892B79F0DB
:1046C0000E941F50860D971DFC0180819181DC01A5
:1046D000ED91FC91008CF18DE02DB2010995BFEFB9
:1046E000CB1ADB0A54CCF501EE0FFF1FEE0FFF1FB4
:1046F00024E9622E772473946C0E7D1EE60DF71D5F
:1047000045805680678070840E94F162A301920107
:10471000B8010E9468620E941F509801220F331F47
:10472000820F931FDC018D919C91892B21F1C35144
:10473000DA4F2883CD5ED540C751DA4F3883C95E42
:10474000D5400E941F50C351DA4F2881CD5ED5401D
:10475000C751DA4F3881C95ED540820F931FFC01E3
:1047600080819181DC01ED91FC910488F589E02D37
:10477000B301A2010995BFEFAB1ABB0ABEC9F5018F
:10478000EE0FFF1FEE0FFF1F79E1672E72E0772E0D
:104790006C0E7D1EE60DF71D458056806780708487
:1047A0000E94F162A3019201B8010E9444620E943A
:1047B0001F509801220F331F820F931FDC018D9130
:1047C0009C91892B21F1C351DA4F2883CD5ED540CE
:1047D000C751DA4F3883C95ED5400E941F50C3517C
:1047E000DA4F2881CD5ED540C751DA4F3881C95E96
:1047F000D540820F931FFC0180819181DC01ED91F6
:10480000FC910288F389E02DB301A2010995BFEF65
:10481000AB1ABB0A0C944519F501EE0FFF1FEE0F02
:10482000FF1FAFE06A2E772473946C0E7D1EE60D99
:10483000F71D45805680678070840E94F162A30155
:104840009201B8010E948C620E941F509801220FB1
:10485000331F820F931FDC018D919C91892B21F1D5
:10486000C351DA4F2883CD5ED540C751DA4F388324
:10487000C95ED5400E941F50C351DA4F2881CD5EDA
:10488000D540C751DA4F3881C95ED540820F931F9A
:10489000FC0180819181DC01ED91FC910688F78912
:1048A000E02DB301A2010995BFEFAB1ABB0A0C942E
:1048B0001818F501EE0FFF1FEE0FFF1FC454DA4F5B
:1048C00068807980CC5BD540E60DF71D4580568029
:1048D000678070840E94F162A3019201B8010E9476
:1048E00020620E941F509801220F331F820F931FD6
:1048F000DC018D919C91892B21F1C351DA4F2883E2
:10490000CD5ED540C751DA4F3883C95ED5400E948D
:104910001F50C351DA4F2881CD5ED540C751DA4FC1
:104920003881C95ED540820F931FFC01808191813F
:10493000DC01ED91FC910088F189E02DB301A20129
:104940000995BFEFAB1ABB0A0C94B61782E090E052
:10495000F401918380830C94791CF301918280820D
:10496000BCCAD3011D921C92B8CA87E0E82EF12C74
:104970008AC9F401332309F4A4C1818F928FA38FD4
:10498000B48F81E0808B84E691E19A8389839C8255
:104990008B820E94C74124E630E040E050E0BE0137
:1049A0006F5F7F4F5B010E946342D40154969C93DA
:1049B0008E93539774CC019709F01DC8D1018D9146
:1049C0009C918230910509F4F5C18330910509F479
:1049D000BEC1019709F00FC8F601208131814281E3
:1049E0005381C351DA4F2883CD5ED540C751DA4F8A
:1049F0003883C95ED540C651DA4F4883CA5ED54078
:104A0000C551DA4F5883CB5ED5400E941F50C35129
:104A1000DA4F2881CD5ED540C751DA4F3881C95E63
:104A2000D540C651DA4F4881CA5ED540C551DA4FEC
:104A30005881CB5ED540B3010E94254D0C94FB1CE0
:104A40000E941F50F301EE0FFF1FE80FF91F0081B6
:104A500011810115110511F40C94031DD801ED907D
:104A6000FC9020E030E04AE754E4F5016081718178
:104A7000828193810E9434890E94F687AB01BC0138
:104A8000D7019296ED91FC919397C8010995C65371
:104A9000DA4FB881CA5CD540BB2311F40C94031DD6
:104AA000F20180819181D801ED91FC9104A0F5A1E2
:104AB000E02D019709F41AC261E070E0C801099580
:104AC0000C94031D82EB9EE09A8389839C828B82E7
:104AD0000E948949FE0131965F01AF0160E070E0FC
:104AE0000E94F34889EF9CE09A8389839C828B82A1
:104AF0000E948949A50161E070E00E94F34886EBBD
:104B00009CE09A8389839C828B820E948949A501BB
:104B100062E070E00E94F3480C940E17FD968083CB
:104B20009183A283B383F401ED5BFF4F81E0808327
:104B300087EE9AE09A8389839C828B820E94C74188
:104B400024E630E040E050E0BE016F5F7F4F5B0144
:104B50000E946342F401EF5BFF4F918380830C94CA
:104B6000911980E090E00C94211A89ED92E19A83EA
:104B700089839C828B820E941F50FE0131965F01C7
:104B8000BF010E94B94C5CC8D1018D919C918230CB
:104B9000910509F477C18330910509F43FC101976C
:104BA00011F00C94FB1CF60120813181428153816C
:104BB000C351DA4F2883CD5ED540C751DA4F3883D1
:104BC000C95ED540C651DA4F4883CA5ED540C5514B
:104BD000DA4F5883CB5ED5400E941F50C351DA4F45
:104BE0002881CD5ED540C751DA4F3881C95ED540A6
:104BF000C651DA4F4881CA5ED540C551DA4F588157
:104C0000CB5ED540B3010E947A4E0C94FB1CD101BF
:104C10008D919C918130910509F493C0029711F018
:104C20000C94FB1CD6012D913D914D915C91CD5280
:104C3000DA4F288339834A835B83C35DD5400E9462
:104C40004348B3010E941D439B01AC01CD52DA4F92
:104C5000688179818A819B81C35DD5400E942187CB
:104C60009B01AC01C351DA4F2883CD5ED540C751BB
:104C7000DA4F3883C95ED540C651DA4F4883CA5EE1
:104C8000D540C551DA4F5883CB5ED5400E941F50A6
:104C9000C351DA4F2881CD5ED540C751DA4F3881F4
:104CA000C95ED540C651DA4F4881CA5ED540C5516C
:104CB000DA4F5881CB5ED540B3010E947C4F0C94F3
:104CC000FB1CA388B4880E94C741B5010E946241C1
:104CD000D40150961C92FE0131965F01E0CAD401C6
:104CE00055966D907C9056970E94C741B3010E94E3
:104CF0006241F401118AFCCAC454DA4F2881398117
:104D00004A815B81CC5BD540D40191962D933D9334
:104D10004D935C93949781E052968C9388E490E154
:104D20009A8389839C828B820E94C74124E630E06B
:104D300040E050E0B5010E946342F401908F878B00
:104D4000E7CAF60120813181428153818BCF0E94D5
:104D50001F50B3010E94B34CF601608171818281C2
:104D600093810E94F187AB01BC01C651DA4F4883A1
:104D7000CA5ED540C551DA4F5883CB5ED540C45189
:104D8000DA4F6883CC5ED540C751DA4F7883C95E6D
:104D9000D5400E941F50C651DA4F4881CA5ED540A7
:104DA000C551DA4F5881CB5ED540B3010E94514CBA
:104DB0000C94FB1CD6012D913D914D915C91C351FA
:104DC000DA4F2883CD5ED540C751DA4F3883C95EAC
:104DD000D540C651DA4F4883CA5ED540C551DA4F37
:104DE0005883CB5ED5400E941F50C351DA4F2881B3
:104DF000CD5ED540C751DA4F3881C95ED540C65126
:104E0000DA4F4881CA5ED540C551DA4F5881CB5E32
:104E1000D540B3010E947D4D0C94FB1CF60120810E
:104E2000318142815381C351DA4F2883CD5ED54011
:104E3000C751DA4F3883C95ED540C651DA4F48832F
:104E4000CA5ED540C551DA4F5883CB5ED5400E942B
:104E50001F50C351DA4F2881CD5ED540C751DA4F7C
:104E60003881C95ED540C651DA4F4881CA5ED54007
:104E7000C551DA4F5881CB5ED540B3010E94374F00
:104E80000C94FB1CD6012D913D914D915C91C35129
:104E9000DA4F2883CD5ED540C751DA4F3883C95EDB
:104EA000D540C651DA4F4883CA5ED540C551DA4F66
:104EB0005883CB5ED5400E941F50C351DA4F2881E2
:104EC000CD5ED540C751DA4F3881C95ED540C65155
:104ED000DA4F4881CA5ED540C551DA4F5881CB5E62
:104EE000D540B3010E940C4F0C94FB1C62E070E0B3
:104EF000C80109950C94031D2F923F924F925F9227
:104F00006F927F928F929F92AF92BF92CF92DF92D9
:104F1000EF92FF920F931F93CF93DF93CDB7DEB73E
:104F2000CD51D4400FB6F894DEBF0FBECDBF3C01CB
:104F30008B01DB011A96DC901A97D7FC44C3FB0166
:104F4000858987FD1AC0C35EDB4F0FB6F894DEBFBC
:104F50000FBECDBFDF91CF911F910F91FF90EF90CA
:104F6000DF90CF90BF90AF909F908F907F906F9089
:104F70005F904F903F902F9008955E01F6EAAF1A30
:104F8000FCEFBF0A86E8D5011D928A95E9F7FB017F
:104F900060817181E18D8E2F90E095958795959533
:104FA00087958370823009F423C4833009F026C4C6
:104FB00048E050E0E295E695E695E370E23009F4CA
:104FC0001AC4E33009F020C428E030E06B507109C6
:104FD000641B750B621B730B9801235E3F4F82307D
:104FE00009F40FC4833009F018C488E090E0820F00
:104FF000931F0296E23009F40DC4E33009F007C4B0
:1050000028E030E0820F931F02960E942674CA5F48
:10501000DB4F2883C650D440C95FDB4F3883C7506D
:10502000D440C85FDB4F4883C850D440C75FDB4FD4
:105030005883C950D440C65FDB4F6883CA50D44000
:10504000C55FDB4F7883CB50D440C45FDB4F888390
:10505000CC50D440C35FDB4F9883CD50D440A501E2
:1050600067E173E0CE018A5F9B4F0E94227A88231A
:1050700009F4A1C2D5011196CD90DD90ED90FC9080
:1050800014978BE0F8013D96DE01A550BC4F0190CE
:105090000D928A95E1F78BE0FE01E550FC4FDE01B1
:1050A000A052BC4F01900D928A95E1F7552453947C
:1050B000C551DC4F5882CB5ED340C451DC4FC8820F
:1050C000D982EA82FB82CC5ED340F80182858823B4
:1050D00009F4A9C3823009F036CFF3018081811130
:1050E00011C58E010F5F1F4F89E2D8011D928A956D
:1050F000E9F7F501658170E0C50106960E94267406
:10510000CC5CDD4F2883C453D240CB5CDD4F388369
:10511000C553D240CA5CDD4F4883C653D240C95CF8
:10512000DD4F5883C753D240C85CDD4F6883C853F6
:10513000D240C75CDD4F7883C953D240C65CDD4F97
:105140008883CA53D240C55CDD4F9883CB53D2408D
:10515000A80167E473E0CE018C5C9D4F0E94227A27
:10516000882309F428C28981882309F420C58E0187
:105170000E5F1F4FE12CF12C0BC0FFEFEF1AFF0A5F
:105180000B5F1F4F898190E0E816F9060CF0DBCE2B
:105190000E941441BC016354764FC8010E945B8C8D
:1051A000892B59F78BE0FE01E052FC4FDE01A05144
:1051B000BC4F01900D928A95E1F70E941441C051B5
:1051C000DC4FC880C05FD340CF50DC4FD880C15F78
:1051D000D340CE50DC4FE880C25FD340CD50DC4F8F
:1051E000F880C35FD340CC50DC4F0881C45FD3400C
:1051F000CB50DC4F1881C55FD340CA50DC4F2881AB
:10520000C65FD340C950DC4F3881C75FD340C85018
:10521000DC4F4881C85FD340C750DC4F5881C95F1D
:10522000D340C650DC4F6881CA5FD3400E94563CD1
:105230008ACE8111E8C3B181CD5EDB4FB883C35103
:10524000D440F301F381C75EDB4FF883C951D440EA
:10525000D3011496BC91C65EDB4FB883CA51D440CB
:10526000F3018281A82FB0E0CC5EDB4FB983A88325
:10527000C451D440C65EDB4F2881CA51D44030E0CF
:1052800040E050E060E070E080E090E008E10E94E3
:10529000B1862901D42E352EF62EB72FCD5EDB4FE9
:1052A000E881C351D4404E2AB2648265C05FDB4FAF
:1052B0008883C051D4409264CF5EDB4F9883C15144
:1052C000D440C75EDB4F2881C951D44030E040E074
:1052D00050E060E070E080E090E000E10E94B18684
:1052E000C35EDB4F2883CD51D440532AD42A352ABC
:1052F000F62AB72BC05FDB4FF881C051D440F82BA2
:10530000C05FDB4FF883C051D440CF5EDB4FA88134
:10531000C151D440A92BCF5EDB4FA883C151D440EB
:10532000C052DC4FE881C05ED340CA5EDB4FE883E9
:10533000C651D440CE51DC4FF881C25ED340C55E29
:10534000DB4FF883CB51D440CD51DC4FA881C35EF5
:10535000D340C45EDB4FA883CC51D440CF51DC4F47
:105360008881C15ED340E82FF0E0C95EDB4FF9834E
:10537000E883C751D4402A2F30E040E050E060E09D
:1053800070E080E090E008E10E94B1865901C42EEF
:10539000252EE62EA72FCA5EDB4FF881C651D440DA
:1053A000AF2AA2648265CE5EDB4F8883C251D440AF
:1053B000192F1264C55EDB4F2881CB51D44030E0F9
:1053C00040E050E060E070E080E090E000E10E94AA
:1053D000B186022FB32AC42A252AE62AA72BCE5E3D
:1053E000DB4FE881C251D440E82BCE5EDB4FE8832F
:1053F000C251D440192BCC5EDB4F28813981C45176
:10540000D440F22FEE279F01C35EDB4FE881CD51E0
:10541000D4404E2A532AC95EDB4F28813981C751B7
:10542000D440F22FEE279F01A02AB32A92014D2DDE
:10543000532D6F2D7B2FC05FDB4F8881C051D4402F
:10544000CF5EDB4F9881C151D440D22CFA2ECE5E74
:10545000DB4F0881C251D4400E94E88639F1CC5E0E
:10546000DB4F28813981C451D440CD5EDB4FA88108
:10547000C351D4403A2BC95EDB4F88819981C75113
:10548000D440CA5EDB4FB881C651D4409B2B28174D
:10549000390709F46DC3B3016F5F7F4FCE018052AE
:1054A0009C4F0E945B8C892B09F0F2C1F40184812E
:1054B0009581019709F4DBC2D30151962D903C9060
:1054C00052978CE8F401DE01A953BD4F01900D9273
:1054D0008A95E1F7FE0131965F0182E391E0DF01F9
:1054E000FC011D923197E9F7F1E0C855DF4FF883D1
:1054F000C85AD040C953DD4F88819981AA81BB81A8
:10550000C75CD240C755DF4F88839983AA83BB838A
:10551000C95AD040FB83C553DD4F88809980CB5C4E
:10552000D24021E08216910409F4AFC232E0831622
:10553000910409F4CFC2892809F4B6C282E090E050
:105540009D838C8331E03F8F83E090E099A388A313
:10555000AE0140515C4F2A01CE018D5C9E4F3C0153
:105560000E94307172018E010D5C1D4F20E031E010
:10557000A301BC01C5010E943371D2018D919C91A0
:10558000892BC9F4CD5CDD4F4881C353D24050E034
:10559000D101ED91FC91309709F4D5CCB301D10143
:1055A00012968D919C9113970995F20180819181BA
:1055B000892B09F4C8CC0E9489304FEF50E060E09D
:1055C0000E946C30C0CC5596CC9048E050E0635FB0
:1055D0007F4FCE0180529C4F0E946B8C7E01B9E3BD
:1055E000EB1ABDEFFB0A83E9F70111928A95E9F7FF
:1055F00095E0FE01E052FC4FD70101900D929A9583
:10560000E1F740E84D0D50E060E070E0D7011596FD
:105610004D935D936D937C9318978C2D90E0A0E053
:10562000B0E0F70181879287A387B487D8016D9195
:105630007C9111975996EC918E2F90E095958795D6
:10564000959587958370823009F498C1833009F469
:10565000E7C040E050E0E295E695E695E370E23081
:1056600009F498C1E33009F092C128E030E06B50B2
:105670007109641B750B621B730B035E1F4F823035
:1056800009F482C1833009F07CC188E090E0080F02
:10569000191F0E5F1F4FE23009F46DC1E33009F0AE
:1056A00067C188E090E0800F911F02960E942674E7
:1056B000C65ADC4F2883CA55D340C55ADC4F3883BD
:1056C000CB55D340C45ADC4F4883CC55D340C35A42
:1056D000DC4F5883CD55D340C25ADC4F6883CE553A
:1056E000D340C15ADC4F7883CF55D340C05ADC4FEA
:1056F0008883C056D340CF59DC4F9883C156D340DE
:10570000A701435F5F4F67E173E0CE01865A9C4F6C
:105710000E94227A882309F44ECFF301C388D488EB
:105720004E01FCEC8F1AFDEF9F0A83E9F701D401CB
:1057300001900D928A95E1F79E012F5F3F4F59012D
:1057400082E391E0D901FC011D923197E9F781E0F4
:1057500090E09A83898381E0C355DF4F8883CD5AD7
:10576000D040E4E6F4E012E720E030E0A90101C017
:105770001191A5E6B0E00E9492869B01AC01210F39
:10578000311D411D511D84E0E637F80789F7C255E8
:10579000DF4F288339834A835B83CE5AD040C05180
:1057A000DC4F19821882C05FD3400E948F86DE01D1
:1057B000A051BC4F7D018E010E541F4F20E830E0F8
:1057C000AE014D545F4FBC01C4010E943371C05102
:1057D000DC4F88819981C05FD340892B09F4DDC0FB
:1057E0000E9489304FEF50E06FEF0E946C30ABCBDE
:1057F00042E050E0DFCB22E030E0E8CB40E050E098
:10580000D9CB82E090E0F3CB20E030E0DFCB20E0AA
:1058100030E0F8CB22E030E0F5CB80E090E0E7CB61
:1058200048E050E018CFD5011596EC90F12C0E947D
:105830002D71A5014A5F5F4F4E01BCEC8B1ABDEF85
:105840009B0A8E01025F1B4F9701BC01C4010E949D
:105850007D71C25FDB4F88819981CE50D440892B06
:1058600009F0A9CEF3018081811108C0D4011496FA
:105870008D919C911597892B09F4E2C0F3018485E1
:10588000C551DC4F9881CB5ED340891709F4D1CC48
:10589000D3018C91882331F0F40184819581892B87
:1058A00009F449C1F301A188B288F4018081918192
:1058B000A281B3819E012F5F3F4F690122E331E056
:1058C000F601A901119241505040E1F741E04B83AC
:1058D00022E030E03D832C834F8F25E030E039A378
:1058E00028A3C855DF4F4883C85AD040C755DF4F5B
:1058F00088839983AA83BB83C95AD0400E943071A0
:10590000DE01A953BD4F7D018E010D5C1D4F20E0CE
:1059100031E0AE014D5C5E4FBC01C6010E943371A7
:10592000C953DD4F88819981C75CD240892B09F02A
:1059300042CECD5CDD4F4881C353D24050E0D5010B
:10594000ED91FC91309709F4FECABE016D5C7E4F6B
:10595000D50112968D919C9113970995C953DD4FEE
:1059600088819981C75CD240892B09F4ECCA23CE87
:1059700080E090E098CE82E090E095CE42E050E06A
:105980006ACE80E090E083CE82E090E080CE20E09E
:1059900030E06DCE22E030E06ACE0E9430718E01A0
:1059A0000D5C1D4F20E031E0AE014D5C5E4FBC014F
:1059B000C5010E943371C051DC4F88819981C05F5D
:1059C000D340892B09F00CCFCD5CDD4F4881C35308
:1059D000D24050E0D601ED91FC91309709F4B3CA62
:1059E000BE016D5C7E4FD60112968D919C911397EE
:1059F0000995C051DC4F88819981C05FD340892BC4
:105A000009F4A1CAEDCE4585568567857089C451D4
:105A1000DC4F88819981AA81BB81CC5ED340481735
:105A200059076A077B0709F033CF8BE0FE01E0528C
:105A3000FC4FD301119601900D928A95E1F736CD76
:105A4000508280911602811107C00E94893040E087
:105A500050E06FEF0E946C3080E1FE01E052FC4F9D
:105A6000D301119601900D928A95E1F707CFF301CA
:105A700010828091160281111FCD0E94893040E072
:105A80005FEF6FEF0E946C3017CD82E090E09D8356
:105A90008C8391E09F8FDE01A051BC4F2D01FE0150
:105AA000ED5CFE4F3F015CCDFE8383E090E0A0E023
:105AB000B0E08B879C87AD87BE8782E090E0A0E056
:105AC000B0E08F8B988FA98FBA8F8B8F9C8FAD8F03
:105AD000BE8F3ECDC353DD4F8881CD5CD240811156
